{
  "contractName": "KyberQuick",
  "abi": [
    {
      "constant": true,
      "inputs": [],
      "name": "tokenAddr",
      "outputs": [
        {
          "name": "",
          "type": "address"
        }
      ],
      "payable": false,
      "stateMutability": "view",
      "type": "function"
    },
    {
      "constant": true,
      "inputs": [],
      "name": "owner",
      "outputs": [
        {
          "name": "",
          "type": "address"
        }
      ],
      "payable": false,
      "stateMutability": "view",
      "type": "function"
    },
    {
      "inputs": [
        {
          "name": "_tokenAddr",
          "type": "address"
        }
      ],
      "payable": false,
      "stateMutability": "nonpayable",
      "type": "constructor"
    },
    {
      "payable": true,
      "stateMutability": "payable",
      "type": "fallback"
    },
    {
      "constant": false,
      "inputs": [
        {
          "name": "_tokenAddr",
          "type": "address"
        },
        {
          "name": "_amount",
          "type": "uint256"
        }
      ],
      "name": "withdrawToken",
      "outputs": [],
      "payable": false,
      "stateMutability": "nonpayable",
      "type": "function"
    },
    {
      "constant": false,
      "inputs": [
        {
          "name": "_amount",
          "type": "uint256"
        }
      ],
      "name": "withdrawEth",
      "outputs": [],
      "payable": false,
      "stateMutability": "nonpayable",
      "type": "function"
    }
  ],
  "bytecode": "0x608060405234801561001057600080fd5b506040516020806108a68339810180604052602081101561003057600080fd5b8101908080519060200190929190505050336000806101000a81548173ffffffffffffffffffffffffffffffffffffffff021916908373ffffffffffffffffffffffffffffffffffffffff16021790555080600160006101000a81548173ffffffffffffffffffffffffffffffffffffffff021916908373ffffffffffffffffffffffffffffffffffffffff160217905550506107d4806100d26000396000f3fe60806040526004361061003f5760003560e01c80635fbe4d1d1461006d5780638da5cb5b146100c45780639e281a981461011b578063c311d04914610176575b61006b34600160009054906101000a900473ffffffffffffffffffffffffffffffffffffffff166101b1565b005b34801561007957600080fd5b506100826104a7565b604051808273ffffffffffffffffffffffffffffffffffffffff1673ffffffffffffffffffffffffffffffffffffffff16815260200191505060405180910390f35b3480156100d057600080fd5b506100d96104cd565b604051808273ffffffffffffffffffffffffffffffffffffffff1673ffffffffffffffffffffffffffffffffffffffff16815260200191505060405180910390f35b34801561012757600080fd5b506101746004803603604081101561013e57600080fd5b81019080803573ffffffffffffffffffffffffffffffffffffffff169060200190929190803590602001909291905050506104f2565b005b34801561018257600080fd5b506101af6004803603602081101561019957600080fd5b810190808035906020019092919050505061069c565b005b60008073eeeeeeeeeeeeeeeeeeeeeeeeeeeeeeeeeeeeeeee90506000839050600073818e6fecd516ecc3849daf6845e3ec868087b75590508073ffffffffffffffffffffffffffffffffffffffff1663809a9e558484896040518463ffffffff1660e01b8152600401808473ffffffffffffffffffffffffffffffffffffffff1673ffffffffffffffffffffffffffffffffffffffff1681526020018373ffffffffffffffffffffffffffffffffffffffff1673ffffffffffffffffffffffffffffffffffffffff16815260200182815260200193505050506040805180830381600087803b1580156102a357600080fd5b505af11580156102b7573d6000803e3d6000fd5b505050506040513d60408110156102cd57600080fd5b8101908080519060200190929190805190602001909291905050509050809450508073ffffffffffffffffffffffffffffffffffffffff1663cb3c28c787858986337fffffffffffffffffffffffffffffffffffffffffffffffffffffffffffffffff8b6000809054906101000a900473ffffffffffffffffffffffffffffffffffffffff166040518963ffffffff1660e01b8152600401808873ffffffffffffffffffffffffffffffffffffffff1673ffffffffffffffffffffffffffffffffffffffff1681526020018781526020018673ffffffffffffffffffffffffffffffffffffffff1673ffffffffffffffffffffffffffffffffffffffff1681526020018573ffffffffffffffffffffffffffffffffffffffff1673ffffffffffffffffffffffffffffffffffffffff1681526020018481526020018381526020018273ffffffffffffffffffffffffffffffffffffffff1673ffffffffffffffffffffffffffffffffffffffff1681526020019750505050505050506020604051808303818588803b15801561046257600080fd5b505af1158015610476573d6000803e3d6000fd5b50505050506040513d602081101561048d57600080fd5b810190808051906020019092919050505050505050505050565b600160009054906101000a900473ffffffffffffffffffffffffffffffffffffffff1681565b6000809054906101000a900473ffffffffffffffffffffffffffffffffffffffff1681565b6000809054906101000a900473ffffffffffffffffffffffffffffffffffffffff1673ffffffffffffffffffffffffffffffffffffffff163373ffffffffffffffffffffffffffffffffffffffff16146105b4576040517f08c379a00000000000000000000000000000000000000000000000000000000081526004018080602001828103825260118152602001807f4d75737420626520746865206f776e657200000000000000000000000000000081525060200191505060405180910390fd5b8173ffffffffffffffffffffffffffffffffffffffff1663a9059cbb6000809054906101000a900473ffffffffffffffffffffffffffffffffffffffff16836040518363ffffffff1660e01b8152600401808373ffffffffffffffffffffffffffffffffffffffff1673ffffffffffffffffffffffffffffffffffffffff16815260200182815260200192505050602060405180830381600087803b15801561065c57600080fd5b505af1158015610670573d6000803e3d6000fd5b505050506040513d602081101561068657600080fd5b8101908080519060200190929190505050505050565b6000809054906101000a900473ffffffffffffffffffffffffffffffffffffffff1673ffffffffffffffffffffffffffffffffffffffff163373ffffffffffffffffffffffffffffffffffffffff161461075e576040517f08c379a00000000000000000000000000000000000000000000000000000000081526004018080602001828103825260118152602001807f4d75737420626520746865206f776e657200000000000000000000000000000081525060200191505060405180910390fd5b3373ffffffffffffffffffffffffffffffffffffffff166108fc829081150290604051600060405180830381858888f193505050501580156107a4573d6000803e3d6000fd5b505056fea165627a7a7230582039f9ed3011e82b7890135d91361ed72fa70c40ef618e17d15828296ca7eb34940029",
  "source": "pragma solidity ^0.5.0;\n\nimport \"./ERC20.sol\";\nimport \"./KyberNetworkProxyInterface.sol\";\n\n// DO NOT SEND ERC20 TOKENS TO THIS CONTRACT!\n/// @title Simple contract to convert ETH to token with kyber \ncontract KyberQuick {\n    \n    address public owner;\n    address public tokenAddr;\n    \n    // Mainnet\n    address constant KYBER_INTERFACE = 0x818E6FECD516Ecc3849DAf6845e3EC868087B755;\n    address constant ETHER_ADDRESS = 0xEeeeeEeeeEeEeeEeEeEeeEEEeeeeEeeeeeeeEEeE;\n    \n    constructor(address _tokenAddr) public {\n        owner = msg.sender;\n        tokenAddr = _tokenAddr;\n    }\n    \n    function() payable external {\n        swapEtherToToken(msg.value, tokenAddr);\n    }\n    \n    function swapEtherToToken (uint _ethAmount, address _tokenAddr) internal {\n        uint minRate;\n        ERC20 ETH_TOKEN_ADDRESS = ERC20(ETHER_ADDRESS);\n        ERC20 token = ERC20(_tokenAddr);\n\n        KyberNetworkProxyInterface _kyberNetworkProxy = KyberNetworkProxyInterface(KYBER_INTERFACE);\n\n        (, minRate) = _kyberNetworkProxy.getExpectedRate(ETH_TOKEN_ADDRESS, token, _ethAmount);\n\n        _kyberNetworkProxy.trade.value(_ethAmount)(\n            ETH_TOKEN_ADDRESS,\n            _ethAmount,\n            token,\n            msg.sender,\n            uint(-1),\n            minRate,\n            owner\n        );\n\n    }\n    \n    \n    // ONLY OWNER, IF TOKENS GET STUCK\n    function withdrawToken(address _tokenAddr, uint _amount) public {\n        require(msg.sender == owner, \"Must be the owner\");\n        \n        ERC20(_tokenAddr).transfer(owner, _amount);\n    }\n    \n    function withdrawEth(uint _amount) public {\n        require(msg.sender == owner, \"Must be the owner\");\n        \n        msg.sender.transfer(_amount);\n    }\n}",
  "sourcePath": "/Users/nenadpalinkasevic/Desktop/blockchain/kyberquick/contracts/KyberQuick.sol",
  "compiler": {
    "name": "solc",
    "version": "0.5.8+commit.23d335f2.Emscripten.clang"
  },
  "schemaVersion": "3.0.11",
  "updatedAt": "2019-10-05T16:32:03.876Z",
  "devdoc": {
    "methods": {},
    "title": "Simple contract to convert ETH to token with kyber "
  },
  "userdoc": {
    "methods": {}
  }
}